{
  "_format": "hh-sol-artifact-1",
  "contractName": "WavePortal",
  "sourceName": "contracts/WavePortal.sol",
  "abi": [
    {
      "inputs": [],
      "stateMutability": "nonpayable",
      "type": "constructor"
    },
    {
      "inputs": [],
      "name": "getTotalWaves",
      "outputs": [
        {
          "internalType": "uint256",
          "name": "",
          "type": "uint256"
        }
      ],
      "stateMutability": "view",
      "type": "function"
    },
    {
      "inputs": [
        {
          "internalType": "uint256",
          "name": "index",
          "type": "uint256"
        }
      ],
      "name": "getWaveHistory",
      "outputs": [
        {
          "internalType": "address",
          "name": "",
          "type": "address"
        }
      ],
      "stateMutability": "view",
      "type": "function"
    },
    {
      "inputs": [],
      "name": "wave",
      "outputs": [],
      "stateMutability": "nonpayable",
      "type": "function"
    }
  ],
  "bytecode": "0x608060405234801561001057600080fd5b5061003c604051806060016040528060258152602001610a1d6025913961004160201b6102b81760201c565b6101c4565b6100dd816040516024016100559190610142565b6040516020818303038152906040527f41304fac000000000000000000000000000000000000000000000000000000007bffffffffffffffffffffffffffffffffffffffffffffffffffffffff19166020820180517bffffffffffffffffffffffffffffffffffffffffffffffffffffffff83818316178352505050506100e060201b60201c565b50565b60008151905060006a636f6e736f6c652e6c6f679050602083016000808483855afa5050505050565b600061011482610164565b61011e818561016f565b935061012e818560208601610180565b610137816101b3565b840191505092915050565b6000602082019050818103600083015261015c8184610109565b905092915050565b600081519050919050565b600082825260208201905092915050565b60005b8381101561019e578082015181840152602081019050610183565b838111156101ad576000848401525b50505050565b6000601f19601f8301169050919050565b61084a806101d36000396000f3fe608060405234801561001057600080fd5b50600436106100415760003560e01c80634b1b7eea146100465780636fe15b44146100765780639a2cdc0814610080575b600080fd5b610060600480360381019061005b9190610566565b61009e565b60405161006d91906105e6565b60405180910390f35b61007e6101b0565b005b61008861026d565b60405161009591906106c1565b60405180910390f35b60006101446040518060400160405280601e81526020017f257320697320256420746820706572736f6e207468617420776176656421000081525060018481548110610113577f4e487b7100000000000000000000000000000000000000000000000000000000600052603260045260246000fd5b9060005260206000200160009054906101000a900473ffffffffffffffffffffffffffffffffffffffff1684610351565b6001828154811061017e577f4e487b7100000000000000000000000000000000000000000000000000000000600052603260045260246000fd5b9060005260206000200160009054906101000a900473ffffffffffffffffffffffffffffffffffffffff169050919050565b60016000808282546101c291906106f8565b925050819055506001339080600181540180825580915050600190039060005260206000200160009091909190916101000a81548173ffffffffffffffffffffffffffffffffffffffff021916908373ffffffffffffffffffffffffffffffffffffffff16021790555061026b6040518060400160405280600d81526020017f2573206861732077617665642100000000000000000000000000000000000000815250336103f0565b565b60006102b06040518060400160405280601781526020017f5765206861766520256420746f74616c2077617665732100000000000000000081525060005461048c565b600054905090565b61034e816040516024016102cc9190610601565b6040516020818303038152906040527f41304fac000000000000000000000000000000000000000000000000000000007bffffffffffffffffffffffffffffffffffffffffffffffffffffffff19166020820180517bffffffffffffffffffffffffffffffffffffffffffffffffffffffff8381831617835250505050610528565b50565b6103eb83838360405160240161036993929190610653565b6040516020818303038152906040527f07c81217000000000000000000000000000000000000000000000000000000007bffffffffffffffffffffffffffffffffffffffffffffffffffffffff19166020820180517bffffffffffffffffffffffffffffffffffffffffffffffffffffffff8381831617835250505050610528565b505050565b6104888282604051602401610406929190610623565b6040516020818303038152906040527f319af333000000000000000000000000000000000000000000000000000000007bffffffffffffffffffffffffffffffffffffffffffffffffffffffff19166020820180517bffffffffffffffffffffffffffffffffffffffffffffffffffffffff8381831617835250505050610528565b5050565b61052482826040516024016104a2929190610691565b6040516020818303038152906040527f9710a9d0000000000000000000000000000000000000000000000000000000007bffffffffffffffffffffffffffffffffffffffffffffffffffffffff19166020820180517bffffffffffffffffffffffffffffffffffffffffffffffffffffffff8381831617835250505050610528565b5050565b60008151905060006a636f6e736f6c652e6c6f679050602083016000808483855afa5050505050565b600081359050610560816107fd565b92915050565b60006020828403121561057857600080fd5b600061058684828501610551565b91505092915050565b6105988161074e565b82525050565b60006105a9826106dc565b6105b381856106e7565b93506105c381856020860161078a565b6105cc816107ec565b840191505092915050565b6105e081610780565b82525050565b60006020820190506105fb600083018461058f565b92915050565b6000602082019050818103600083015261061b818461059e565b905092915050565b6000604082019050818103600083015261063d818561059e565b905061064c602083018461058f565b9392505050565b6000606082019050818103600083015261066d818661059e565b905061067c602083018561058f565b61068960408301846105d7565b949350505050565b600060408201905081810360008301526106ab818561059e565b90506106ba60208301846105d7565b9392505050565b60006020820190506106d660008301846105d7565b92915050565b600081519050919050565b600082825260208201905092915050565b600061070382610780565b915061070e83610780565b9250827fffffffffffffffffffffffffffffffffffffffffffffffffffffffffffffffff03821115610743576107426107bd565b5b828201905092915050565b600061075982610760565b9050919050565b600073ffffffffffffffffffffffffffffffffffffffff82169050919050565b6000819050919050565b60005b838110156107a857808201518184015260208101905061078d565b838111156107b7576000848401525b50505050565b7f4e487b7100000000000000000000000000000000000000000000000000000000600052601160045260246000fd5b6000601f19601f8301169050919050565b61080681610780565b811461081157600080fd5b5056fea2646970667358221220d03755ea23bd37a1ffc66a7bea683d656cf13cd9b77a15173a936d5cc328b54464736f6c63430008000033596f20796f2c204920616d206120636f6e747261637420616e64204920616d207374617274",
  "linkReferences": {},
  "deployedLinkReferences": {}
}